:020000040800F2
:1000000000000120B52A0008C9290008D1290008EC
:10001000D9290008E1290008E929000800000000AA
:10002000000000000000000000000000F1290008AE
:10003000FF290008000000000D2A00081B2A000804
:10004000052B0008052B0008052B0008052B0008D0
:10005000052B0008052B0008052B0008052B0008C0
:10006000052B0008052B0008052B0008052B0008B0
:10007000052B0008052B0008052B0008052B0008A0
:10008000052B0008052B0008052B000800000000C8
:10009000000000000000000000000000052B000828
:1000A000052B0008052B0008052B0008052B000870
:1000B000052B0008052B0008052B0008052B000860
:1000C000052B0008052B0008052B0008052B000850
:1000D000052B0008052B0008292A00080000000055
:1000E000052B0008052B0008052B00080000000068
:1000F000000000000000000000000000052B0008C8
:1001000000000000052B0008052B0008052B000847
:1001100000000000000000000000000000000000DF
:10012000052B0008052B0008052B0008052B0008EF
:10013000052B000800000000000000000000000087
:10014000000000000000000000000000052B000877
:10015000052B0008052B0008052B0008052B0008BF
:10016000052B0008052B000800000000000000001F
:10017000000000000000000000000000000000007F
:1001800000000000052B0008000000000000000037
:04019000052B000833
:1001980010B5054C237833B9044B13B10448AFF3B9
:1001A80000800123237010BDA00100200000000082
:1001B8006874000808B5034B1BB103490348AFF343
:1001C800008008BD00000000A40100206874000839
:1001D80081F0004102E000BF83F0004330B54FEAF0
:1001E80041044FEA430594EA050F08BF90EA020F5D
:1001F8001FBF54EA000C55EA020C7FEA645C7FEAF0
:10020800655C00F0E2804FEA5454D4EB5555B8BF12
:100218006D420CDD2C4480EA020281EA030382EA83
:10022800000083EA010180EA020281EA0303362D15
:1002380088BF30BD11F0004F4FEA01314FF4801CE8
:100248004CEA113102D0404261EB410113F0004FFA
:100258004FEA03334CEA133302D0524263EB4303B1
:1002680094EA050F00F0A780A4F10104D5F1200E4F
:100278000DDB02FA0EFC22FA05F2801841F10001AA
:1002880003FA0EF2801843FA05F359410EE0A5F17E
:1002980020050EF1200E012A03FA0EFC28BF4CF0AF
:1002A800020C43FA05F3C01851EBE37101F0004565
:1002B80007D54FF0000EDCF1000C7EEB00006EEB72
:1002C8000101B1F5801F1BD3B1F5001F0CD34908FC
:1002D8005FEA30004FEA3C0C04F101044FEA445253
:1002E80012F5800F80F09A80BCF1004F08BF5FEADA
:1002F800500C50F1000041EB045141EA050130BDBA
:100308005FEA4C0C404141EB0101013C28BFB1F5CB
:10031800801FE9D291F0000F04BF01460020B1FA16
:1003280081F308BF2033A3F10B03B3F120020CDAE9
:100338000C3208DD02F1140CC2F10C0201FA0CF0C7
:1003480021FA02F10CE002F11402D8BFC2F1200C2C
:1003580001FA02F120FA0CFCDCBF41EA0C019040E2
:10036800E41AA2BF01EB0451294330BD6FEA04042B
:100378001F3C1CDA0C340EDC04F11404C4F1200216
:1003880020FA04F001FA02F340EA030021FA04F328
:1003980045EA030130BDC4F10C04C4F1200220FA7F
:1003A80002F001FA04F340EA0300294630BD21FABD
:1003B80004F0294630BD94F0000F83F4801306BF83
:1003C80081F480110134013D4EE77FEA645C18BF77
:1003D8007FEA655C29D094EA050F08BF90EA020F0E
:1003E80005D054EA000C04BF1946104630BD91EA06
:1003F800030F1EBF0021002030BD5FEA545C05D109
:100408004000494128BF41F0004130BD14F5800447
:100418003CBF01F5801130BD01F0004545F0FE41BB
:1004280041F470014FF0000030BD7FEA645C1ABFF0
:10043800194610467FEA655C1CBF0B46024650EA27
:10044800013406BF52EA033591EA030F41F4002153
:1004580030BD00BF90F0000F04BF0021704730B5D9
:100468004FF4806404F132044FF000054FF00001AE
:1004780050E700BF90F0000F04BF0021704730B56F
:100488004FF4806404F1320410F0004548BF404244
:100498004FF000013EE700BF42004FEAE2014FEA99
:1004A80031014FEA02701FBF12F07F4393F07F4F74
:1004B80081F06051704732F07F4208BF704793F077
:1004C8007F4F04BF41F40021704730B54FF460748A
:1004D80001F0004521F000411CE700BF50EA01028D
:1004E80008BF704730B54FF000050AE050EA010236
:1004F80008BF704730B511F0004502D5404261EBA6
:1005080041014FF4806404F132045FEA915C3FF4E6
:10051800D8AE4FF003025FEADC0C18BF03325FEA83
:10052800DC0C18BF033202EBDC02C2F1200300FA34
:1005380003FC20FA02F001FA03FE40EA0E0021FA59
:1005480002F11444BDE600BF70B54FF0FF0C4CF447
:10055800E06C1CEA11541DBF1CEA135594EA0C0FF9
:1005680095EA0C0F00F0DEF82C4481EA030621EA34
:100578004C5123EA4C5350EA013518BF52EA03356F
:1005880041F4801143F4801338D0A0FB02CE4FF021
:100598000005E1FB02E506F00042E0FB03E54FF051
:1005A8000006E1FB03569CF0000F18BF4EF0010E49
:1005B800A4F1FF04B6F5007F64F5407404D25FEA45
:1005C8004E0E6D4146EB060642EAC62141EA5551F8
:1005D8004FEAC52040EA5E504FEACE2EB4F1FD0C3A
:1005E80088BFBCF5E06F1ED8BEF1004F08BF5FEAB8
:1005F800500E50F1000041EB045170BD06F000466A
:1006080046EA010140EA020081EA0301B4EB5C0416
:10061800C2BFD4EB0C0541EA045170BD41F480110E
:100628004FF0000E013C00F3AB8014F1360FDEBF33
:10063800002001F0004170BDC4F10004203C35DA0F
:100648000C341BDC04F11404C4F1200500FA05F392
:1006580020FA04F001FA05F240EA020001F0004233
:1006680021F0004110EBD37021FA04F642EB0601A9
:100678005EEA430E08BF20EAD37070BDC4F10C04D3
:10068800C4F1200500FA04F320FA05F001FA04F297
:1006980040EA020001F0004110EBD37041F1000183
:1006A8005EEA430E08BF20EAD37070BDC4F120058E
:1006B80000FA05F24EEA020E20FA04F301FA05F2F6
:1006C80043EA020321FA04F001F0004121FA04F29E
:1006D80020EA020000EBD3705EEA430E08BF20EA6E
:1006E800D37070BD94F0000F0FD101F000464000A8
:1006F80041EB010111F4801F08BF013CF7D041EA2A
:10070800060195F0000F18BF704703F0004652002D
:1007180043EB030313F4801F08BF013DF7D043EAFE
:100728000603704794EA0C0F0CEA135518BF95EAB4
:100738000C0F0CD050EA410618BF52EA4306D1D13B
:1007480081EA030101F000414FF0000070BD50EA5A
:10075800410606BF1046194652EA430619D094EAE4
:100768000C0F02D150EA013613D195EA0C0F05D1CE
:1007780052EA03361CBF104619460AD181EA030122
:1007880001F0004141F0FE4141F470014FF00000DA
:1007980070BD41F0FE4141F4780170BD70B54FF075
:1007A800FF0C4CF4E06C1CEA11541DBF1CEA1355F5
:1007B80094EA0C0F95EA0C0F00F0A7F8A4EB0504D7
:1007C80081EA030E52EA03354FEA013100F08880CE
:1007D8004FEA03334FF0805545EA131343EA126397
:1007E8004FEA022245EA111545EA10654FEA00264C
:1007F8000EF000419D4208BF964244F1FD0404F505
:10080800407402D25B084FEA3202B61A65EB030560
:100818005B084FEA32024FF480104FF4002CB6EB1D
:10082800020E75EB030E22BFB61A754640EA0C009D
:100838005B084FEA3202B6EB020E75EB030E22BFDD
:10084800B61A754640EA5C005B084FEA3202B6EB1E
:10085800020E75EB030E22BFB61A754640EA9C00DD
:100868005B084FEA3202B6EB020E75EB030E22BFAD
:10087800B61A754640EADC0055EA060E18D04FEA6B
:10088800051545EA16754FEA06164FEAC30343EA0B
:1008980052734FEAC2025FEA1C1CC0D111F4801FD8
:1008A8000BD141EA00014FF000004FF0004CB6E7D1
:1008B80011F4801F04BF01430020B4F1FD0C88BF70
:1008C800BCF5E06F3FF6AFAEB5EB030C04BFB6EB7B
:1008D800020C5FEA500C50F1000041EB045170BD6E
:1008E8000EF0004E4EEA113114EB5C04C2BFD4EB9B
:1008F8000C0541EA045170BD41F480114FF0000E1F
:10090800013C90E645EA060E8DE60CEA135594EA9A
:100918000C0F08BF95EA0C0F3FF43BAF94EA0C0F9D
:100928000AD150EA01347FF434AF95EA0C0F7FF412
:1009380025AF104619462CE795EA0C0F06D152EA66
:1009480003353FF4FDAE1046194622E750EA41064A
:1009580018BF52EA43067FF4C5AE50EA41047FF45B
:100968000DAF52EA43057FF4EBAE12E74FF0FF3CC0
:1009780006E000BF4FF0010C02E000BF4FF0010C91
:100988004DF804CD4FEA410C7FEA6C5C4FEA430C0A
:1009980018BF7FEA6C5C1BD001B050EA410C0CBF59
:1009A80052EA430C91EA030F02BF90EA020F0020BB
:1009B800704710F1000F91EA030F58BF994208BF22
:1009C80090422CBFD8176FEAE37040F001007047DF
:1009D8004FEA410C7FEA6C5C02D150EA013C07D136
:1009E8004FEA430C7FEA6C5CD6D152EA033CD3D081
:1009F8005DF8040B704700BF8446104662468C467B
:100A08001946634600E000BF01B5FFF7B7FF0028AD
:100A180048BF10F1000F01BD4DF808EDFFF7F4FFD6
:100A28000CBF012000205DF808FB00BF4DF808ED61
:100A3800FFF7EAFF34BF012000205DF808FB00BF84
:100A48004DF808EDFFF7E0FF94BF012000205DF8A6
:100A580008FB00BF4DF808EDFFF7CEFF94BF01205B
:100A680000205DF808FB00BF4DF808EDFFF7C4FF54
:100A780034BF012000205DF808FB00BF4FEA410C9D
:100A88007FEA6C5C02D150EA013C0AD14FEA430C80
:100A98007FEA6C5C02D152EA033C02D14FF00000BD
:100AA80070474FF0010070474FEA410212F50012FB
:100AB80015D211D56FF47873B3EB625212D94FEA9D
:100AC800C12343F0004343EA505311F0004F23FA87
:100AD80002F018BF404270474FF00000704750EADC
:100AE800013005D111F0004008BF6FF00040704799
:100AF8004FF00000704700BF4FEA4102B2F1E043F7
:100B080024BFB3F5001CDCF1FE5C0DD901F0004CEC
:100B18004FEAC0024CEA5070B2F1004F40EB83003C
:100B280008BF20F00100704711F0804F21D113F168
:100B38003872BCBF01F00040704741F480114FEAA1
:100B48005252C2F11802C2F1200C10FA0CF320FA2A
:100B580002F018BF40F001004FEAC1234FEAD32347
:100B680003FA0CFC40EA0C0023FA02F34FEA4303B1
:100B7800CCE77FEA625307D150EA01331EBF4FF03A
:100B8800FE4040F44000704701F0004040F0FE4055
:100B980040F40000704700BF53B94AB9002908BFA4
:100BA80000281CBF4FF0FF314FF0FF3000F06AB94A
:100BB800ADF1080C6DE904CE00F006F8DDF804E0AC
:100BC800DDE9022304B070472DE9F047089D0C4683
:100BD800002B4ED194468C458646B2FA82F262D9F1
:100BE8004AB1C2F12003914020FA03F30CFA02FC47
:100BF800194300FA02FE4FEA1C471FFA8CF6B1FBB4
:100C0800F7F44FEA1E4307FB141143EA014304FBC0
:100C180006F199420AD91CEB030304F1FF3080F076
:100C28001281994240F20F81023C6344591A1FFA1B
:100C38008EF3B1FBF7F007FB101143EA014300FB09
:100C480006F69E420AD91CEB030300F1FF3180F03F
:100C5800FC809E4240F2F980634402389B1B40EAC4
:100C6800044000211DB1D3400022C5E90032BDE88F
:100C7800F0878B4205D90DB1C5E90001002108466E
:100C8800F5E7B3FA83F1002946D1A34202D3904293
:100C9800C0F0F080861A64EB03030120002DE6D033
:100CA800C5E90063E3E7002A40F09080A1EB0C045B
:100CB8004FEA1C481FFA8CF70121B4FBF8F64FEAFB
:100CC8001E4308FB164443EA044307FB06F0984218
:100CD80008D91CEB030306F1FF3402D2984200F254
:100CE800CD8026461C1A1FFA8EF3B4FBF8F008FBD9
:100CF800104443EA044300FB07F79F4208D91CEB62
:100D0800030300F1FF3402D29F4200F2B080204674
:100D1800DB1B40EA0640A5E7C1F120068B4022FA1A
:100D280006F71F4320FA06FC04FA01F343EA0C0312
:100D3800F44000FA01F8380C4FEA1349B4FBF0FE0E
:100D48001FFA87FC00FB1E4449EA04440EFB0CF919
:100D5800A14502FA01F20AD93C190EF1FF3A80F0D6
:100D68008480A14540F28180AEF1020E3C44A4EBA0
:100D780009041FFA83F9B4FBF0F300FB134449EAB2
:100D8800044403FB0CFCA44507D93C1903F1FF30CC
:100D980067D2A44565D9023B3C4443EA0E40A0FB18
:100DA8000293A4EB0C049C42CE469C4651D34ED0F1
:100DB80055B1B8EB0E0364EB0C0404FA06F6CB400D
:100DC8001E43CC40C5E90064002150E7C2F120036E
:100DD80020FA03F10CFA02FC24FA03F394400C43C2
:100DE8004FEA1C4800FA02FE1FFA8CF7B3FBF8F032
:100DF80008FB1031230C43EA014300FB07F1994239
:100E080008D91CEB030300F1FF362CD299422AD9EA
:100E1800023863445B1AA4B2B3FBF8F108FB113340
:100E280044EA034401FB07F3A34208D91CEB04047A
:100E380001F1FF3613D2A34211D902396444E41AEE
:100E480041EA004139E70446F0E6084606E7C845A6
:100E5800AED2B9EB020E63EB070C0138A8E73146B6
:100E6800EDE7034699E73046D4E7D6467FE7634483
:100E780002384DE70646234608460FE7023E63441C
:100E880030E700BF704700BF80B483B000AF786020
:100E980087ED000A7B68D3ED016A7B6893ED017AE0
:100EA8007B68D3ED007A37EE277AC6EE877A7B68BF
:100EB800C3ED037A7B6893ED047A7B68D3ED036A0C
:100EC8007B68D3ED047A97ED006A76EE677A66EE72
:100ED800A77A77EE277A7B68C3ED057A7B68D3ED2E
:100EE800037AB7EE007A37EE677A7B68D3ED017A3A
:100EF80027EE277A7B68D3ED046A7B68D3ED057A01
:100F080076EEE77AF0EEE76A7B68D3ED027A66EE72
:100F1800A77A77EE277A7B68C3ED017A7B685A69EE
:100F28007B681A617B685B6907EE903AB0EE670AE6
:100F38000C37BD465DF8047B7047000080B500AFF4
:100F4800124B134A1A60114B124A5A600F4B002277
:100F58009A600E4B0022DA600C4B4FF480421A6103
:100F68000A4B00225A61094B00229A61074B002262
:100F7800DA61064B00221A62044802F07FF9034640
:100F8800002B01D000F056F900BF80BDBC01002045
:100F980000540040801A060080B500AF01F0B0FD93
:100FA80000F090F8FFF7CAFF01F056FD00BF3C487B
:100FB80000F046F90346012BF9D03A4B1B68002B89
:100FC80007D03949364800F0EBFF364B00221A604B
:100FD80061E03549324800F08BF9334B03F54A5349
:100FE800103353E9022310461946FFF785FD0346DF
:100FF8002E4A13602C4B03F54A53203353E9020160
:101008004FF000022A4BFFF79FFA02460B461046A4
:101018001946FFF749FD07EE900AF8EEE77A254BE7
:10102800C3ED007A204B03F54A531033D3E900018E
:101038004FF000021E4BFFF787FA02460B46104698
:101048001946FFF731FD07EE900AF8EEE77A1A4BDA
:10105800C3ED007A144B03F549533033D3E9002329
:1010680010461946FFF748FD0346144A13600E4B15
:1010780003F54B5353E902014FF000020C4BFFF705
:1010880063FA02460B4610461946FFF70DFD034664
:101098001AB20B4B1A80022001F0A4FD8DE700BFA5
:1010A800BC0100209000002010020020D83400204D
:1010B80000002440E4340020DC340020E034002028
:1010C800D434002080B594B000AF07F1200330225B
:1010D8000021184604F0A4FD07F10C0300221A6051
:1010E8005A609A60DA601A610023BB60284B1B6C57
:1010F800274A43F080531364254B1B6C03F080533D
:10110800BB60BB6800237B60224B1B6823F4404311
:10111800204A43F4004313601E4B1B6803F440430A
:101128007B607B6802233B620123FB6210233B63E5
:101138000223BB630023FB6308233B6454237B64C3
:101148000223BB640423FB6407F12003184603F061
:10115800B9F80346002B01D000F06CF80F23FB60B0
:1011680002233B6100237B614FF48053BB61002362
:10117800FB6107F10C030221184603F01BFB034631
:10118800002B01D000F056F800BF5037BD4680BD97
:10119800003802400070004080B582B000AF78602F
:1011A8007B681A681D4B1B689A4233D101221C497F
:1011B8001A4803F0BAFD1A4B1B787A2B19D1194B30
:1011C800B3F900301B121BB2DAB2174B1A70154B69
:1011D800B3F90030DAB2144B5A7064230122124971
:1011E8000E4803F017FD6423012210490B4803F051
:1011F80011FD0B4B1B78612B0CD10A4B00221A8076
:101208000B4B03F54B5319464FF000024FF0000308
:1012180041E9022300BF0837BD4680BDEC340020F9
:10122800D2340020D4340020D0340020D13400201F
:101238001002002080B400AF72B600BF00BFFDE707
:1012480080B588B004AF78606423029301230193CA
:1012580007F10F03009301237522D021786802F06B
:101268004BFAFB7B682B3DD10023BB7364230293AD
:101278000123019307F10E03009301236B22D02170
:10128800786802F03FF90723BB73642302930123B4
:10129800019307F10E03009301231922D0217868E6
:1012A80002F030F90023BB736423029301230193F6
:1012B80007F10E03009301231C22D021786802F065
:1012C80021F91823BB73642302930123019307F1C7
:1012D8000E03009301231B22D021786802F012F933
:1012E800002300E0012318461037BD4680BD0000EA
:1012F8002DE9B04FA6B004AFF861B9616423029339
:101308000E23019307F12003009301233B22D021F0
:10131800F86902F0F1F997F820301B021AB297F831
:1013280021301BB213431AB2BB691A8097F82230D6
:101338001B021AB297F823301BB213431AB2BB69C7
:101348005A8097F824301B021AB297F825301BB23E
:1013580013431AB2BB699A8097F826301B021AB257
:1013680097F827301BB21343A7F87E3097F8283038
:101378001B021AB297F829301BB213431AB2BB6981
:101388001A8497F82A301B021AB297F82B301BB22E
:1013980013431AB2BB695A8497F82C301B021AB24D
:1013A80097F82D301BB213431AB2BB699A84BB69F4
:1013B800B3F900301846FFF75DF84FF00002BC4B58
:1013C800FFF7ECF902460B4610461946BB6903F5D0
:1013D8004F63D3E90023FEF7FFFE02460B46B969C7
:1013E800C1E90223BB69B3F902301846FFF742F896
:1013F8004FF00002AE4BFFF7D1F902460B461046FC
:101408001946BB6903F5CB531033D3E90023FEF724
:10141800E3FE02460B46B969C1E90423BB69B3F987
:1014280004301846FFF726F89DA3D3E90023FFF7F9
:10143800B5F902460B4610461946BB69D3E91C2389
:10144800FEF7CAFE02460B46B969C1E90623B7F999
:101458007E3007EE903AB8EEE77ADFED966AC7EE8F
:10146800267A9FED957A77EE877ABB6903F5405324
:10147800C3EDA87ABB69B3F920301846FEF7FAFF26
:1014880089A3D3E90023FFF789F902460B46B96916
:10149800C1E90A23BB69B3F922301846FEF7EAFF0F
:1014A80081A3D3E90023FFF779F902460B46B9690E
:1014B800C1E90C23BB69B3F924301846FEF7DAFFFB
:1014C80079A3D3E90023FFF769F902460B46B96906
:1014D800C1E90E23BB69D3E9022310461946FFF779
:1014E8000BFB034600EE103A7448FFF7CDFC10EEF4
:1014F800103A1846FEF7D0FF02460B46B969C1E913
:101508000223BB69D3E9042310461946FFF7F4FA0E
:10151800034600EE103A6A48FFF7B6FC10EE103AA0
:101528001846FEF7B9FF02460B46B969C1E904231C
:10153800BB69D3E9062310461946FFF7DDFA0346CF
:1015480000EE103A5F48FFF79FFC10EE103A18467D
:10155800FEF7A2FF02460B46B969C1E90623BB693B
:10156800D3E90A01BB69D3E91023FEF735FE024629
:101578000B4610461946FFF7BFFA034600EE103A2D
:101588005148FFF781FC10EE103A1846FEF784FF29
:1015980002460B46B969C1E90A23BB69D3E90A23A4
:1015A80010461946FFF7A8FA034600EE103A4648D7
:1015B800FFF76AFC10EE103A1846FEF76DFF024678
:1015C8000B46B969C1E90A23BB69D3E90C01BB69B8
:1015D800D3E91223FEF700FE02460B4610461946D1
:1015E800FFF78AFA034600EE103A3848FFF74CFC3A
:1015F80010EE103A1846FEF74FFF02460B46B9693F
:10160800C1E90C23BB69D3E90C2310461946FFF73F
:1016180073FA034600EE103A2C48FFF735FC10EE3B
:10162800103A1846FEF738FF02460B46B969C1E979
:101638000C23BB69D3E90E01BB69D3E91423FEF778
:10164800CBFD02460B4610461946FFF755FA0346EE
:1016580000EE103A1E48FFF717FC10EE103A184635
:10166800FEF71AFF02460B46B969C1E90E23BB69AA
:10167800D3E90E2310461946FFF73EFA034600EE5B
:10168800103A1348FFF700FC10EE103A1846FEF720
:1016980003FF02460B46B969C1E90E23BB6919E08D
:1016A800000000000029CC40666666666666304029
:1016B8000000D0400000AA43B81E124200000020DB
:1016C8001800002030000020780000206000002072
:1016D80048000020D3E90E01BB6903F54A531033D3
:1016E80043E9020101F072FA0246654B1B68D31AFE
:1016F8001846FEF7AFFE4FF00002624BFFF74EF8B8
:1017080002460B46C7E91C2301F060FA03465C4A0F
:1017180013605D4B01221A60BB69B3F900301A46A9
:10172800BB69B3F9003003FB02F2BB69B3F90430BB
:101738001946BB69B3F9043001FB03F31344184697
:10174800FEF798FE02460B4643EC102B04F09CFA79
:1017580087ED1A0B4FF000024FF00003D7E91A018A
:10176800FFF75AF90346002B1FD1BB69B3F90230C2
:101778001846FEF77FFED7E91A23FFF70FF802464F
:101788000B4643EC172BB0EE470AF0EE670A04F05D
:10179800A7FA51EC100B38A3D3E90023FEF7D4FEC7
:1017A80002460B46C7E9202305E04FF000024FF040
:1017B8000003C7E92023BB69B3F900305B42184630
:1017C800FEF758FE04460D46BB69B3F904301846C7
:1017D800FEF750FE02460B4643EC112B45EC104B2E
:1017E80004F050FA51EC100B23A3D3E90023FEF7C1
:1017F800ABFE02460B46C7E918234FF00002234B05
:10180800D7E91801FFF712F90346002B0DD0BB6981
:1018180003F54A533033D3E900014FF000021C4B63
:10182800FFF722F90346002B17D14FF00002184B9F
:10183800D7E91801FFF718F90346002B2CD0BB692C
:1018480003F54A533033D3E900014FF000020F4B40
:10185800FFF7ECF80346002B1ED00E49D7E91823F2
:10186800C1E90623BB6903F54A5330331946D7E962
:101878001823C1E9002327E0F8C1631ADCA54C400E
:10188800E834002000408F402C010020008056C022
:1018980000805640E0000020BB6993ED0C7B97ED7B
:1018A8001C2BB0EE471AF0EE671A97ED180BC848D4
:1018B80000F036FEB0EE407AF0EE607ABB6903F5D0
:1018C8004A53303383ED007BBB6903F54A53303309
:1018D800D3E90023924623F0004B4FF00002BD4BA2
:1018E80050465946FFF7C0F80346002B08D0BB699D
:1018F800D3E90A23904683F00049BB69C3E90A8902
:10190800BB6993ED0A7B97ED1C2BB0EE471AF0EEFE
:10191800671A97ED200BB04800F002FEB0EE407A4F
:10192800F0EE607ABB6903F54A53303303ED027B6E
:10193800BB6903F54A53303353E90201A0A3D3E945
:101948000023FEF72BFF02460B4643EC172BB0EEA5
:10195800470AF0EE670A04F0B7FB87ED160BBB6980
:1019680003F54A53303353E9020195A3D3E9002321
:10197800FEF714FF02460B4643EC172BB0EE470A5E
:10198800F0EE670A04F044FB87ED140BBB6903F51E
:101998004A533033D3E9000189A3D3E90023FEF782
:1019A800FDFE02460B4643EC172BB0EE470AF0EE5D
:1019B800670A04F089FB87ED120BBB6903F54A53EC
:1019C8003033D3E900017EA3D3E90023FEF7E6FE16
:1019D80002460B4643EC172BB0EE470AF0EE670AB7
:1019E80004F016FB87ED100BD7E91223D7E916018F
:1019F800FEF7AAFD02460B4610461946D7E9102302
:101A0800FEF7A2FD02460B4614461D46D7E91223EF
:101A1800D7E91401FEF798FD02460B4620462946F1
:101A2800FEF7DCFB02460B4643EC172B97ED101B29
:101A3800B0EE470AF0EE670A04F024F951EC100BF7
:101A48005FA3D3E90023FEF77FFD02460B46C7E9F3
:101A58000E23D7E91623D7E91201FEF775FD0246D2
:101A68000B4610461946D7E91423FEF76DFD0246CA
:101A78000B4614461D46D7E91623D7E91001FEF791
:101A880063FD02460B4620462946FEF7A7FB0246A1
:101A98000B4643EC172B97ED141BB0EE470AF0EEFC
:101AA800670A04F0EFF851EC100B45A3D3E90023C3
:101AB800FEF74AFD02460B46C7E90C23BB6903F54E
:101AC8004A5320331946D7E90E2341E90223BB695B
:101AD80003F54A5310331946D7E90C23C1E900230B
:101AE800BB6903F54A531033D3E90001BB6903F519
:101AF8004A53203353E90223FEF770FB02460B4694
:101B080010461946BB6903F549533033C3E9000150
:101B1800BB6903F549533033D3E900014FF00002A4
:101B28002E4BFEF78DFF0346002B00F0B0802C4BA8
:101B38001B68002B00F0AB80BB6903F54A531033D8
:101B480053E902233A6123F000437B614FF000021E
:101B5800244BD7E90401FEF787FF0346002B55D035
:101B6800BB6903F54B5353E90245BB6903F54A5377
:101B7800103353E90289BB6903F54A53103353E91B
:101B88000201BB6903F549533033D3E90023FEF75B
:101B9800DBFC02460B46104619460BA3D3E900238B
:101BA800FEF7FCFD02460B4640464946FEF716FB8B
:101BB80002460B461046194616E000BFAFF30080F8
:101BC800F8C1631ADCA54C400000000000C0624068
:101BD800E0000020008056409800002000002440CB
:101BE8002C0100200000E03FD7E91C23FEF7ACFCE5
:101BF80002460B4620462946FEF7F0FA02460B46F7
:101C0800B96901F54B5141E902233CE0BB6903F591
:101C18004B5353E90245BB6903F54A53103353E963
:101C28000289BB6903F54A53103353E90201BB69C2
:101C380003F549533033D3E90023FEF785FC024608
:101C48000B46104619464FF00002A14BFEF7A6FDC1
:101C580002460B4640464946FEF7BEFA02460B4688
:101C680010461946D7E91C23FEF76EFC02460B46C0
:101C780020462946FEF7B2FA02460B46B96901F535
:101C88004B5141E90223934B00221A606CE1BB6976
:101C980003F549533033D3E900014FF000028E4B6E
:101CA800FEF7E2FE0346002B00F0A780BB6903F5B0
:101CB80049533033D3E900014FF00002874BFEF758
:101CC800BFFE0346002B00F09880824B1B68002B58
:101CD80000F09380BB6903F54A53103353E902239C
:101CE800BA6023F00043FB604FF000027C4BD7E959
:101CF8000201FEF7B9FE0346002B3DD0BB6903F590
:101D08004B5353E90245BB6903F54A53103353E972
:101D18000289BB6903F54A53103353E90201BB69D1
:101D280003F549533033D3E90023FEF70DFC02468F
:101D38000B461046194664A3D3E90023FEF72EFD8F
:101D480002460B4640464946FEF748FA02460B460D
:101D580010461946D7E91C23FEF7F6FB02460B4648
:101D680020462946FEF73AFA02460B46B96901F5BC
:101D78004B5141E902233CE0BB6903F54B5353E95E
:101D88000245BB6903F54A53103353E90289BB691D
:101D980003F54A53103353E90201BB6903F549536C
:101DA8003033D3E90023FEF7CFFB02460B4610463B
:101DB80019464FF00002464BFEF7F0FC02460B4670
:101DC80040464946FEF708FA02460B4610461946B1
:101DD800D7E91C23FEF7B8FB02460B4620462946E6
:101DE800FEF7FCF902460B46B96901F54B5141E98A
:101DF8000223384B00221A60B6E0BB6903F5495349
:101E08003033D3E900014FF00002344BFEF72CFECB
:101E18000346002B00F0A8802E4B1B68002B00F017
:101E2800A380BB6903F54A53103353E902233A6090
:101E380023F000437B604FF00002294BD7E90001F3
:101E4800FEF712FE0346002B4ED0BB6903F54B5339
:101E580053E90245BB6903F54A53103353E9028934
:101E6800BB6903F54A53103353E90201BB6903F513
:101E780049533033D3E90023FEF766FB02460B468D
:101E8800104619464FF00002164BFEF787FC024633
:101E98000B4640464946FEF7A1F902460B46104656
:101EA8001946D7E91C23FEF74FFB02460B4620468E
:101EB8002946FEF793F902460B46B96901F54B51DD
:101EC80041E902234DE000BF5C8FC2F52860604005
:101ED80000405E402C0100200000244000004940E2
:101EE8000000E03F00405540BB6903F54B5353E900
:101EF8000245BB6903F54A53103353E90289BB69AC
:101F080003F54A53103353E90201BB6903F54953FA
:101F18003033D3E90023FEF717FB02460B46104681
:101F280019464FF000021B4BFEF738FC02460B46E1
:101F380040464946FEF750F902460B4610461946F8
:101F4800D7E91C23FEF700FB02460B46204629462C
:101F5800FEF744F902460B46B96901F54B5141E9D0
:101F680002230D4B00221A600C4B1B68002B0CD06F
:101F7800BB6903F54B5319464FF000024FF00003BD
:101F880041E90223054B00221A6000BF8837BD468D
:101F9800BDE8B08F00405E402C01002028010020E1
:101FA80080B58CB004AF786039600023FB610023F2
:101FB800FB613BE1642302930E23019307F10C03B9
:101FC800009301233B22D021786801F095FB3B7BED
:101FD8001B021AB27B7B1BB213431AB23B681A80EE
:101FE800BB7B1B021AB2FB7B1BB213431AB23B68C2
:101FF8005A803B7C1B021AB27B7C1BB213431AB279
:102008003B689A80BB7C1B021AB2FB7C1BB2134351
:102018007B833B7D1B021AB27B7D1BB213431AB232
:102028003B681A84BB7D1B021AB2FB7D1BB21343AB
:102038001AB23B685A843B7E1B021AB27B7E1BB2E3
:1020480013431AB23B689A843B68B3F900301846C8
:10205800FEF710FA4FF00002A34BFEF79FFB024673
:102068000B463968C1E902233B68B3F902301846C8
:10207800FEF700FA4FF000029B4BFEF78FFB02467B
:102088000B463968C1E904233B68B3F904301846A4
:10209800FEF7F0F990A3D3E90023FEF77FFB024691
:1020A8000B463968C1E90623B7F91A3007EE903AAA
:1020B800B8EEE77ADFED8D6AC7EE267A9FED8C7A67
:1020C80077EE877A3B6803F54053C3EDA87A3B68FF
:1020D800B3F920301846FEF7CDF981A3D3E90023E0
:1020E800FEF75CFB02460B463968C1E90A233B68E8
:1020F800B3F922301846FEF7BDF979A3D3E90023D6
:10210800FEF74CFB02460B463968C1E90C233B68D5
:10211800B3F924301846FEF7ADF971A3D3E90023CB
:10212800FEF73CFB02460B463968C1E90E233B68C3
:10213800D3E910013B68D3E90A23FEF74FF80246BA
:102148000B463968C1E910233B68D3E912013B68A3
:10215800D3E90C23FEF742F802460B463968C1E979
:1021680012233B68D3E914013B68D3E90E23FEF739
:1021780035F802460B463968C1E914233B68D3E9B0
:1021880016013B68D3E90223FEF728F802460B46FE
:102198003968C1E916233B68D3E918013B68D3E9DC
:1021A8000423FEF71BF802460B463968C1E91823D9
:1021B8003B68D3E91A013B68D3E90623FEF70EF81A
:1021C80002460B463968C1E91A233B68D3E906235E
:1021D8003868F9690E31C9000144C1E900233B6838
:1021E800D3E904233868F96901F22E31C9000144A2
:1021F800C1E900233B68D3E902233868F96901F58E
:10220800CF71C9000144C1E900233B68D3E90E231B
:102218003868F96901F2BE41C9000144C1E90023E7
:102228000A2000F0DFFCFB690133FB61FB69B3F5B1
:10223800C87FFFF6BFAE3B68D3E910014FF000023C
:102248002C4BFEF7ABFA02460B463968C1E910235E
:102258003B68D3E912014FF00002264BFEF79EFAC5
:1022680002460B463968C1E912233B68D3E91401D9
:102278004FF000021F4BFEF791FA02460B463968F1
:10228800C1E914233B68D3E916014FF00002194B4A
:10229800FEF784FA02460B463968C1E916233B6803
:1022A800D3E918014FF00002124BFEF777FA024605
:1022B8000B463968C1E918233B68D3E91A014FF086
:1022C80000020C4BFEF76AFA02460B463968C1E970
:1022D8001A230023FB616CE0000000000029CC40B9
:1022E80066666666666630400000D0400000AA4315
:1022F800B81E1242000079403A68FB690E33DB00D1
:102308001344D3E900013B68D3E91A23FDF764FFBE
:1023180002460B463868F9690E31C9000144C1E923
:1023280000233A68FB6903F22E33DB001344D3E938
:1023380000013B68D3E91823FDF74EFF02460B4620
:102348003868F96901F22E31C9000144C1E9002356
:102358003A68FB6903F5CF73DB001344D3E9000146
:102368003B68D3E91623FDF737FF02460B4638686A
:10237800F96901F5CF71C9000144C1E900233A6840
:10238800FB6903F2BE43DB001344D3E900013B6859
:10239800D3E91423FDF720FF02460B463868F96994
:1023A80001F2BE41C9000144C1E90023FB690133C0
:1023B800FB61FB69B3F5C87F9EDB0123FB615DE030
:1023C8003B68D3E91C013A68FB690E33DB00134410
:1023D800D3E90023FDF702FF02460B463968C1E93D
:1023E8001C233B6803F5CB531033D3E900013A684B
:1023F800FB6903F22E33DB001344D3E90023FDF716
:10240800EDFE02460B46104619463B6803F5CB53D2
:102418001033C3E900013B6803F54F63D3E90001BA
:102428003A68FB6903F5CF73DB001344D3E9002353
:10243800FDF7D4FE02460B46396801F54F61C1E944
:1024480000233B6803F517533033D3E900013A689A
:10245800FB6903F2BE43DB001344D3E90023FDF715
:10246800BDFE02460B46104619463B6803F5175356
:102478003033C3E90001FB690133FB61FB69B3F544
:10248800C87F9DDB3B68D3E91C014FF00002234B5A
:10249800FEF784F902460B463968C1E91C233B68FC
:1024A80003F5CB531033D3E900014FF000021B4B67
:1024B800FEF774F902460B46104619463B6803F5C9
:1024C800CB531033C3E900013B6803F54F63D3E9ED
:1024D80000014FF00002114BFEF760F902460B466F
:1024E800396801F54F61C1E900233B6803F51753CB
:1024F8003033D3E900014FF00002084BFEF74EF9E4
:1025080002460B46104619463B6803F5175330330D
:10251800C3E9000100BF2037BD4680BD00007940F7
:10252800B0B596B000AFF86187ED040B87ED021BDC
:1025380087ED002BFB69D3E90823D7E90201FDF7F2
:102548004BFE02460B46C7E91423FB69D3E906454F
:10255800D7E91423D7E90001FDF7F6FF02460B4639
:1025680020462946FDF73AFE02460B46F969C1E9BD
:102578000623FB69D3E90A45FB69D3E91001D7E9CA
:102588000023FDF7E1FF02460B4610461946FB699A
:10259800D3E90C23FDF720FE02460B4610461946E8
:1025A800FB69D3E90E23FDF717FE02460B461046DA
:1025B8001946FB69D3E90023FDF710FE02460B46D6
:1025C80010461946D7E90023FDF7BEFF02460B4621
:1025D80020462946FDF702FE02460B46F969C1E985
:1025E8000A23FB69D3E90C45FB69D3E91001D7E954
:1025F8000023FDF7A9FF02460B4620462946FDF7B2
:10260800EBFD02460B46F969C1E90C23FB69D3E9E6
:102618000E45FB69D3E91001D7E90023FDF794FFC4
:1026280002460B4620462946FDF7D6FD02460B46D4
:10263800F969C1E90E23FB69D3E91045FB69D3E9C0
:102648000201D7E90023FDF77FFF02460B4620462B
:102658002946FDF7C3FD02460B46F969C1E9102377
:10266800FB69D3E90A01FB69D3E90423FDF7B6FD49
:1026780002460B46C7E91223FB69D3E90A01D7E9E9
:102688001223FEF78BF802460B46C7E90823FB69BD
:10269800D3E90E01D7E91223FEF780F802460B466C
:1026A800C7E90A23FB69D3E90623D7E90401FDF743
:1026B80093FD02460B46C7E91023FB69D3E906459B
:1026C800D7E90801D7E91023FDF73EFF02460B467C
:1026D80020462946FDF782FD02460B46F969C1E905
:1026E8000623FB69D3E90845D7E90A01D7E910238E
:1026F800FDF72AFF02460B4620462946FDF76EFDE8
:1027080002460B46F969C1E90823FB69D3E90A23A4
:10271800C7E90E23FB69D3E90C23C7E90C23FB693E
:10272800D3E90A45D7E90801D7E90E23FDF70CFFDD
:1027380002460B4620462946FDF74EFD02460B464B
:10274800F969C1E90A23FB69D3E90C45D7E908010E
:10275800D7E90C23FDF7F8FE02460B46204629462A
:10276800FDF73AFD02460B46F969C1E90C23FB69FE
:10277800D3E90E45D7E90A01D7E90E23FDF7E4FEB0
:1027880002460B4620462946FDF726FD02460B4623
:10279800F969C1E90E23FB69D3E91045D7E90A01B4
:1027A800D7E90C23FDF7D0FE02460B462046294602
:1027B800FDF712FD02460B46F969C1E91023FB69D2
:1027C800D3E9062343EC172BB0EE470AF0EE670A6D
:1027D8005837BD46B0BD000080B483B000AF0023B9
:1027E8007B60104B5B6C0F4A43F4804353640D4B82
:1027F8005B6C03F480437B607B6800233B60094B80
:102808001B6C084A43F080531364064B1B6C03F09F
:1028180080533B603B6800BF0C37BD465DF8047BC6
:10282800704700BF0038024080B58AB000AF7860BA
:1028380007F1140300221A605A609A60DA601A617C
:102848007B681B68194A93422BD100233B61184BC4
:102858001B6B174A43F002031363154B1B6B03F002
:1028680002033B613B69C0237B611223BB610023E8
:10287800FB6103233B6204237B6207F114031946BF
:102888000C4800F077FB0023FB60094B1B6C084ADF
:1028980043F400131364064B1B6C03F40013FB6032
:1028A800FB6800BF2837BD4680BD00BF005400400C
:1028B800003802400004024080B58CB000AF786058
:1028C80007F11C0300221A605A609A60DA601A61E4
:1028D8007B681B68364A93422DD10023BB61354B78
:1028E8005B6C344A43F010035364324B5B6C03F067
:1028F8001003BB61BB6900237B612E4B1B6B2D4A08
:1029080043F0010313632B4B1B6B03F001037B6143
:102918007B694FF4C063FB6102233B6200237B6247
:102928000323BB620723FB6207F11C0319462248F5
:1029380000F020FB38E07B681B68204A934233D1C3
:1029480000233B611B4B1B6C1A4A43F4003313648E
:10295800184B1B6C03F400333B613B690023FB609D
:10296800144B1B6B134A43F001031363114B1B6B8E
:1029780003F00103FB60FB680C23FB6102233B624D
:1029880000237B620323BB620723FB6207F11C035E
:102998001946094800F0EEFA00220121262000F02D
:1029A80020FA262000F039FA00BF3037BD4680BD36
:1029B800001001400038024000000240004400407E
:1029C80080B400AF00BFFDE780B400AF00BFFDE7F3
:1029D80080B400AF00BFFDE780B400AF00BFFDE7E3
:1029E80080B400AF00BFFDE780B400AF00BFBD46B4
:1029F8005DF8047B704780B400AF00BFBD465DF84A
:102A0800047B704780B400AF00BFBD465DF8047B0F
:102A1800704780B500AF00F0C5F800BF80BD00006A
:102A280080B500AF024802F0A5F900BF80BD00BF25
:102A3800EC34002080B400AF064BD3F88830054A48
:102A480043F47003C2F8883000BFBD465DF8047BCC
:102A5800704700BF00ED00E080B500AF114B124A8F
:102A68001A60104B4FF4E1325A600E4B00229A6004
:102A78000C4B0022DA600B4B00221A61094B0C2226
:102A88005A61084B00229A61064B0022DA61054818
:102A980002F070F80346002B01D0FEF7CBFB00BF15
:102AA80080BD00BFEC34002000440040DFF834D083
:102AB800FFF7C0FF0C480D490D4A002302E0D45827
:102AC800C4500433C4188C42F9D30A4A0A4C002370
:102AD80001E013600432A242FBD303F0AFF8FEF723
:102AE8005BFA70470000012000000020A0010020D0
:102AF800F0760008A001002070360020FEE70000F4
:102B080080B500AF0E4B1B680D4A43F40073136089
:102B18000B4B1B680A4A43F480631360084B1B681D
:102B2800074A43F480731360032000F04FF90F2025
:102B380000F008F8FFF750FE0023184680BD00BFDC
:102B4800003C024080B582B000AF7860124B1A6832
:102B5800124B1B7819464FF47A73B3FBF1F3B2FBAF
:102B6800F3F3184600F067F90346002B01D0012360
:102B78000EE07B680F2B0AD8002279684FF0FF30EF
:102B880000F02FF9064A7B681360002300E0012358
:102B980018460837BD4680BD3001002038010020A6
:102BA8003401002080B400AF064B1B781A46064B50
:102BB8001B681344044A136000BFBD465DF8047BDC
:102BC800704700BF380100203435002080B400AFC2
:102BD800034B1B681846BD465DF8047B704700BF71
:102BE8003435002080B584B000AF7860FFF7EEFF81
:102BF800B8607B68FB60FB68B3F1FF3F05D00A4B08
:102C08001B781A46FB681344FB6000BFFFF7DEFF22
:102C18000246BB68D31AFA689A42F7D800BF00BFC9
:102C28001037BD4680BD00BF3801002080B485B094
:102C380000AF78607B6803F00703FB600C4BDB6830
:102C4800BB60BA684FF6FF031340BB60FB681A020B
:102C5800BB68134343F0BF6343F40033BB60044ACB
:102C6800BB68D36000BF1437BD465DF8047B70476E
:102C780000ED00E080B400AF044BDB681B0A03F0F2
:102C880007031846BD465DF8047B704700ED00E079
:102C980080B483B000AF0346FB7197F90730002B6F
:102CA8000BDBFB7903F01F02074997F907305B0933
:102CB800012000FA02F241F8232000BF0C37BD467C
:102CC8005DF8047B704700BF00E100E080B483B08A
:102CD80000AF03463960FB7197F90730002B0ADB18
:102CE8003B68DAB20C4997F907301201D2B20B44AB
:102CF80083F800230AE03B68DAB20849FB7903F05D
:102D08000F03043B1201D2B20B441A7600BF0C37F2
:102D1800BD465DF8047B704700E100E000ED00E08F
:102D280080B489B000AFF860B9607A60FB6803F0DE
:102D38000703FB61FB69C3F10703042B28BF0423C6
:102D4800BB61FB690433062B02D9FB69033B00E036
:102D580000237B614FF0FF32BB6902FA03F3DA43C9
:102D6800BB681A407B699A404FF0FF317B6901FAD2
:102D780003F3D9437B680B40134318462437BD46F9
:102D88005DF8047B7047000080B582B000AF7860C2
:102D98007B68013BB3F1807F01D301230FE00A4A2E
:102DA8007B68013B53600F214FF0FF30FFF78EFF28
:102DB800054B00229A60044B07221A60002318462C
:102DC8000837BD4680BD00BF10E000E080B582B086
:102DD80000AF78607868FFF729FF00BF0837BD4665
:102DE80080BD80B586B000AF0346B9607A60FB73DA
:102DF80000237B61FFF73EFF78617A68B9687869DC
:102E0800FFF78EFF024697F90F3011461846FFF775
:102E18005DFF00BF1837BD4680BD80B582B000AFEA
:102E28000346FB7197F907301846FFF731FF00BFDB
:102E38000837BD4680BD80B582B000AF786078683D
:102E4800FFF7A2FF034618460837BD4680BD80B588
:102E580084B000AF78607B689B6DFB60FFF7B6FEBF
:102E6800B8607B6893F83530DBB2022B08D07B68FA
:102E780080225A657B68002283F83420012352E0BF
:102E88007B681B681A687B681B6822F016021A6048
:102E98007B681B685A697B681B6822F080025A614C
:102EA8007B681B6C002B03D17B689B6C002B07D0C5
:102EB8007B681B681A687B681B6822F008021A6026
:102EC8007B681B681A687B681B6822F001021A601D
:102ED80013E0FFF77BFE0246BB68D31A052B0CD91B
:102EE8007B6820225A657B68032283F835207B683B
:102EF800002283F83420032315E07B681B681B68D5
:102F080003F00103002BE4D17B68DB6D3F229A407C
:102F1800FB689A607B68012283F835207B68002271
:102F280083F83420002318461037BD4680BD80B48E
:102F380083B000AF78607B6893F83530DBB2022B42
:102F480004D07B6880225A6501230CE07B68052247
:102F580083F835207B681B681A687B681B6822F039
:102F680001021A60002318460C37BD465DF8047B41
:102F78007047000080B489B000AF786039600023E2
:102F88007B6100233B610023BB610023FB6159E1A6
:102F98000122FB6902FA03F37B613B681B687A69CB
:102FA80013403B613A697B699A4240F048813B682B
:102FB8005B6803F00303012B05D03B685B6803F0F3
:102FC8000303022B30D17B689B68BB61FB695B0004
:102FD800032202FA03F3DB43BA691340BB613B687F
:102FE800DA68FB695B0002FA03F3BA691343BB6151
:102FF8007B68BA699A607B685B68BB610122FB6980
:1030080002FA03F3DB43BA691340BB613B685B68B0
:103018001B0903F00102FB6902FA03F3BA691343BF
:10302800BB617B68BA695A603B685B6803F003035D
:10303800032B17D07B68DB68BB61FB695B0003224D
:1030480002FA03F3DB43BA691340BB613B689A6831
:10305800FB695B0002FA03F3BA691343BB617B683F
:10306800BA69DA603B685B6803F00303022B23D17B
:10307800FB69DA087B68083253F82230BB61FB69C8
:1030880003F007039B000F2202FA03F3DB43BA693C
:103098001340BB613B681A69FB6903F007039B0097
:1030A80002FA03F3BA691343BB61FB69DA087B6868
:1030B8000832B96943F822107B681B68BB61FB6959
:1030C8005B00032202FA03F3DB43BA691340BB61D6
:1030D8003B685B6803F00302FB695B0002FA03F3D9
:1030E800BA691343BB617B68BA691A603B685B685D
:1030F80003F44033002B00F0A2800023FB60574B01
:103108005B6C564A43F480435364544B5B6C03F442
:103118008043FB60FB68524AFB699B08023352F804
:103128002330BB61FB6903F003039B000F2202FA03
:1031380003F3DB43BA691340BB617B68494A934296
:1031480019D07B68484A934213D07B68474A934218
:103158000DD07B68464A934207D07B68454A934224
:1031680001D1042308E0072306E0032304E0022337
:1031780002E0012300E00023FA6902F00302920052
:103188009340BA691343BB613549FB699B08023315
:10319800BA6941F82320384B9B68BB613B69DB4324
:1031A800BA691340BB613B685B6803F48013002B6A
:1031B80003D0BA693B691343BB612F4ABB6993606B
:1031C8002D4BDB68BB613B69DB43BA691340BB61CC
:1031D8003B685B6803F40013002B03D0BA693B69B2
:1031E8001343BB61244ABB69D360234B5B68BB6153
:1031F8003B69DB43BA691340BB613B685B6803F416
:103208000033002B03D0BA693B691343BB611A4AE8
:10321800BB695360184B1B68BB613B69DB43BA69E8
:103228001340BB613B685B6803F48033002B03D019
:10323800BA693B691343BB610F4ABB691360FB69F9
:103248000133FB61FB690F2B7FF6A2AE00BF00BF05
:103258002437BD465DF8047B704700BF0038024044
:10326800003801400000024000040240000802400B
:10327800000C024000100240003C014080B584B0C0
:1032880000AF78607B68002B01D101232BE17B68BC
:1032980093F83D30DBB2002B06D17B68002283F81F
:1032A8003C207868FFF7C0FA7B68242283F83D2029
:1032B8007B681B681A687B681B6822F001021A6029
:1032C8007B681B681A687B681B6842F400421A60B6
:1032D8007B681B681A687B681B6822F400421A60C6
:1032E80001F020FCF8607B685B68814A934207D84C
:1032F800FB68804A934294BF01230023DBB206E0B7
:10330800FB687D4A934294BF01230023DBB2002B64
:1033180001D00123E7E0FB68784AA2FB03239B0C5A
:10332800BB607B681B685B6823F03F017B681B6898
:10333800BA680A435A607B681B681B6A23F03F011E
:103348007B685B686A4A934202D8BB68013309E02C
:10335800BB684FF4967202FB03F3694AA2FB03238E
:103368009B0901337A6812680B4313627B681B68F8
:10337800DB6923F44F4222F0FF027B685B685C49FB
:103388008B4219D8FB68591E7B685B685B00B1FBF0
:10339800F3F3591C40F6FC730B40002B0AD0FB6872
:1033A800591E7B685B685B00B1FBF3F30133C3F321
:1033B8000B0351E004234FE07B689B68002B11D17D
:1033C800FB68581E7B6859680B465B000B44B0FBD2
:1033D800F3F30133C3F30B03002B0CBF01230023CA
:1033E800DBB212E0FB68581E7B6859680B469B00ED
:1033F8000B4499000B44B0FBF3F30133C3F30B0305
:10340800002B0CBF01230023DBB2002B01D00123CA
:1034180022E07B689B68002B0ED1FB68581E7B68F6
:1034280059680B465B000B44B0FBF3F30133C3F35D
:103438000B0343F400430FE0FB68581E7B68596890
:103448000B469B000B4499000B44B0FBF3F301338C
:10345800C3F30B0343F44043796809681343CB6112
:103468007B681B681B6823F0C0017B68DA697B688E
:103478001B6A1A437B681B680A431A607B681B68CF
:103488009B6823F4034323F0FF037A6811697A6881
:10349800D26811437A6812680B4393607B681B6893
:1034A800DB6823F0FF017B685A697B689B691A43D4
:1034B8007B681B680A43DA607B681B681A687B684C
:1034C8001B6842F001021A607B6800221A647B685C
:1034D800202283F83D207B6800221A637B68002243
:1034E80083F83E20002318461037BD4680BD00BF34
:1034F800A08601007F841E00FF083D0083DE1B4379
:10350800D34D621080B588B002AFF8600846114606
:103518001A4603467B810B463B811346FB80FFF727
:1035280055FB7861FB6893F83D30DBB2202B40F007
:10353800D9807B690093192301226D49F86800F04E
:103548008BFC0346002B01D00223CCE0FB6893F8E8
:103558003C30012B01D10223C5E0FB68012283F82E
:103568003C20FB681B681B6803F00103012B07D094
:10357800FB681B681A68FB681B6842F001021A6046
:10358800FB681B681A68FB681B6822F400621A60F3
:10359800FB68212283F83D20FB68402283F83E2007
:1035A800FB6800221A64FB683A6A5A62FB68BA8CA4
:1035B8005A85FB685B8D9AB2FB681A85FB684D4A91
:1035C800DA62F8883A8979897B690193BB6A009342
:1035D8000346F86800F0C2FA0346002B52D00123D4
:1035E80081E07A69B96AF86800F050FD0346002B5B
:1035F8000DD0FB681B6C042B07D1FB681B681A688D
:10360800FB681B6842F400721A6001236BE0FB68D8
:103618005B6A1A78FB681B681A61FB685B6A5A1C4C
:10362800FB685A62FB681B8D013B9AB2FB681A85DE
:10363800FB685B8D9BB2013B9AB2FB685A85FB68BD
:103648001B685B6903F00403042B1BD1FB681B8D0B
:10365800002B17D0FB685B6A1A78FB681B681A6135
:10366800FB685B6A5A1CFB685A62FB681B8D013B4E
:103678009AB2FB681A85FB685B8D9BB2013B9AB2D4
:10368800FB685A85FB681B8D002BAAD17A69B96A39
:10369800F86800F043FD0346002B0DD0FB681B6C57
:1036A800042B07D1FB681B681A68FB681B6842F487
:1036B80000721A60012316E0FB681B681A68FB6831
:1036C8001B6842F400721A60FB68202283F83D20D0
:1036D800FB68002283F83E20FB68002283F83C2028
:1036E800002300E0022318461837BD4680BD00BFFE
:1036F800020010000000FFFF80B58CB002AFF86038
:10370800084611461A4603467B810B463B81134601
:10371800FB80FFF75BFA7862FB6893F83D30DBB219
:10372800202B40F014827B6A0093192301227B49E5
:10373800F86800F091FB0346002B01D0022307E252
:10374800FB6893F83C30012B01D1022300E2FB68AF
:10375800012283F83C20FB681B681B6803F0010307
:10376800012B07D0FB681B681A68FB681B6842F0CE
:1037780001021A60FB681B681A68FB681B6822F460
:1037880000621A60FB68222283F83D20FB68402211
:1037980083F83E20FB6800221A64FB683A6B5A6281
:1037A800FB68BA8E5A85FB685B8D9AB2FB681A85EE
:1037B800FB685B4ADA62F8883A8979897B6A0193FF
:1037C800BB6B00930346F86800F05EFA0346002BD3
:1037D80001D00123BCE1FB681B8D002B13D1002312
:1037E8003B62FB681B685B693B62FB681B689B6903
:1037F8003B623B6AFB681B681A68FB681B6842F4FB
:1038080000721A6090E1FB681B8D012B1BD1FB68CD
:103818001B681A68FB681B6822F480621A60002320
:10382800FB61FB681B685B69FB61FB681B689B6944
:10383800FB61FB69FB681B681A68FB681B6842F43C
:1038480000721A6070E1FB681B8D022B1BD1FB68AC
:103858001B681A68FB681B6822F480621A60FB68A0
:103868001B681A68FB681B6842F400621A60002330
:10387800BB61FB681B685B69BB61FB681B689B6974
:10388800BB61BB6950E100237B61FB681B685B6916
:103898007B61FB681B689B697B617B6944E1FB6812
:1038A8001B8D032B00F2F180FB681B8D012B23D1AC
:1038B8007A6AB96BF86800F079FC0346002B01D0EE
:1038C800012345E1FB681B681A69FB685B6AD2B291
:1038D8001A70FB685B6A5A1CFB685A62FB681B8D8E
:1038E800013B9AB2FB681A85FB685B8D9BB2013B72
:1038F8009AB2FB685A8517E1FB681B8D022B4ED1E3
:103908007B6A0093BB6B00220649F86800F0A4FAB2
:103918000346002B08D001231AE100BF0200100063
:103928000000FFFF04000100FB681B681A68FB68C1
:103938001B6842F400721A60FB681B681A69FB680E
:103948005B6AD2B21A70FB685B6A5A1CFB685A62DF
:10395800FB681B8D013B9AB2FB681A85FB685B8D7F
:103968009BB2013B9AB2FB685A85FB681B681A69CF
:10397800FB685B6AD2B21A70FB685B6A5A1CFB6808
:103988005A62FB681B8D013B9AB2FB681A85FB687B
:103998005B8D9BB2013B9AB2FB685A85C4E07B6A97
:1039A8000093BB6B00226C49F86800F055FA034697
:1039B800002B01D00123CBE0FB681B681A68FB6869
:1039C8001B6822F480621A60FB681B681A69FB682E
:1039D8005B6AD2B21A70FB685B6A5A1CFB685A624F
:1039E800FB681B8D013B9AB2FB681A85FB685B8DEF
:1039F8009BB2013B9AB2FB685A857B6A0093BB6B0A
:103A080000225549F86800F027FA0346002B01D038
:103A180001239DE0FB681B681A68FB681B6842F479
:103A280000721A60FB681B681A69FB685B6AD2B28D
:103A38001A70FB685B6A5A1CFB685A62FB681B8D2C
:103A4800013B9AB2FB681A85FB685B8D9BB2013B10
:103A58009AB2FB685A85FB681B681A69FB685B6A3F
:103A6800D2B21A70FB685B6A5A1CFB685A62FB6820
:103A78001B8D013B9AB2FB681A85FB685B8D9BB274
:103A8800013B9AB2FB685A854EE07A6AB96BF868CE
:103A980000F08CFB0346002B01D0012358E0FB68A3
:103AA8001B681A69FB685B6AD2B21A70FB685B6AAA
:103AB8005A1CFB685A62FB681B8D013B9AB2FB6873
:103AC8001A85FB685B8D9BB2013B9AB2FB685A85ED
:103AD800FB681B685B6903F00403042B24D1FB68B3
:103AE8001B8D032B07D1FB681B681A68FB681B68D2
:103AF80022F480621A60FB681B681A69FB685B6ABB
:103B0800D2B21A70FB685B6A5A1CFB685A62FB687F
:103B18001B8D013B9AB2FB681A85FB685B8D9BB2D3
:103B2800013B9AB2FB685A85FB681B8D002B7FF41A
:103B3800B6AEFB68202283F83D20FB68002283F89C
:103B48003E20FB68002283F83C20002300E002238B
:103B580018462837BD4680BD0400010080B588B0EE
:103B680002AFF860084611461A4603467B810B46A9
:103B78003B811346FB80FB681B681A68FB681B685F
:103B880042F480721A607B6A00933B6A00224FF00D
:103B98000111F86800F060F90346002B0DD0FB68AE
:103BA8001B681B6803F48073B3F5807F03D1FB683F
:103BB8004FF400721A6403235FE07B89DBB21A4674
:103BC800FB681B6802F0FE021A617B6A3A6A2D499B
:103BD800F86800F0BBF90346002B01D001234CE044
:103BE80000237B61FB681B685B697B61FB681B6862
:103BF8009B697B617B697A6A396AF86800F046FAE2
:103C08000346002B0DD0FB681B6C042B07D1FB6807
:103C18001B681A68FB681B6842F400721A6001236B
:103C28002BE0FB88012B05D13B89DAB2FB681B68C6
:103C38001A6121E03B891B0A9BB2DAB2FB681B6858
:103C48001A617A6A396AF86800F020FA0346002B8C
:103C58000DD0FB681B6C042B07D1FB681B681A6826
:103C6800FB681B6842F400721A60012305E03B8977
:103C7800DAB2FB681B681A61002318461837BD467C
:103C880080BD00BF0200010080B588B002AFF860B7
:103C9800084611461A4603467B810B463B8113466C
:103CA800FB80FB681B681A68FB681B6842F480622B
:103CB8001A60FB681B681A68FB681B6842F480720C
:103CC8001A607B6A00933B6A00224FF00111F86882
:103CD80000F0C2F80346002B0DD0FB681B681B6878
:103CE80003F48073B3F5807F03D1FB684FF400724F
:103CF8001A640323AAE07B89DBB21A46FB681B68B7
:103D080002F0FE021A617B6A3A6A5249F86800F0CA
:103D18001DF90346002B01D0012397E000237B61A6
:103D2800FB681B685B697B61FB681B689B697B613F
:103D38007B697A6A396AF86800F0A8F90346002BAB
:103D48000DD0FB681B6C042B07D1FB681B681A6835
:103D5800FB681B6842F400721A60012376E0FB8856
:103D6800012B05D13B89DAB2FB681B681A6121E097
:103D78003B891B0A9BB2DAB2FB681B681A617A6A34
:103D8800396AF86800F082F90346002B0DD0FB6809
:103D98001B6C042B07D1FB681B681A68FB681B683F
:103DA80042F400721A60012350E03B89DAB2FB68E2
:103DB8001B681A617A6A396AF86800F067F903467D
:103DC800002B0DD0FB681B6C042B07D1FB681B680C
:103DD8001A68FB681B6842F400721A60012335E018
:103DE800FB681B681A68FB681B6842F480721A60DB
:103DF8007B6A00933B6A00224FF00111F86800F0DB
:103E08002BF80346002B0DD0FB681B681B6803F4D6
:103E18008073B3F5807F03D1FB684FF400721A6496
:103E2800032313E07B89DBB243F00103DAB2FB68BA
:103E38001B681A617B6A3A6A0649F86800F086F8D6
:103E48000346002B01D0012300E000231846183751
:103E5800BD4680BD0200010080B584B000AFF860A7
:103E6800B9603B601346FB7148E03B68B3F1FF3F24
:103E780044D0FEF7ABFE0246BB69D31A3A689A42B1
:103E880002D33B68002B39D1BB681B0CDBB2012B7A
:103E98000DD1FB681B685B69DA43BB6813409BB2B2
:103EA800002B0CBF01230023DBB21A460CE0FB6891
:103EB8001B689B69DA43BB6813409BB2002B0CBF9D
:103EC80001230023DBB21A46FB799A4216D1FB681C
:103ED80000221A63FB68202283F83D20FB68002239
:103EE80083F83E20FB681B6C43F02002FB681A64D1
:103EF800FB68002283F83C20012323E0BB681B0CED
:103F0800DBB2012B0DD1FB681B685B69DA43BB6828
:103F180013409BB2002B0CBF01230023DBB21A46CF
:103F28000CE0FB681B689B69DA43BB6813409BB2D3
:103F3800002B0CBF01230023DBB21A46FB799A42FF
:103F480093D0002318461037BD4680BD80B584B095
:103F580000AFF860B9607A603B6071E0FB681B688D
:103F68005B6903F48063B3F5806F23D1FB681B683A
:103F78001A68FB681B6842F400721A60FB681B68C9
:103F88006FF480625A61FB6800221A63FB68202282
:103F980083F83D20FB68002283F83E20FB681B6CF9
:103FA80043F00402FB681A64FB68002283F83C2093
:103FB800012367E07B68B3F1FF3F41D0FEF706FEBF
:103FC80002463B68D31A7A689A4202D37B68002B70
:103FD80036D1BB681B0CDBB2012B0CD1FB681B680C
:103FE8005B69DA43BB6813409BB2002B14BF012303
:103FF8000023DBB20BE0FB681B689B69DA43BB68F4
:1040080013409BB2002B14BF01230023DBB2002B0B
:1040180016D0FB6800221A63FB68202283F83D2033
:10402800FB68002283F83E20FB681B6C43F02002EB
:10403800FB681A64FB68002283F83C20012321E016
:10404800BB681B0CDBB2012B0CD1FB681B685B69DE
:10405800DA43BB6813409BB2002B14BF0123002333
:10406800DBB20BE0FB681B689B69DA43BB68134053
:104078009BB2002B14BF01230023DBB2002B7FF47B
:104088006DAF002318461037BD4680BD80B584B09B
:1040980000AFF860B9607A6034E0F86800F0E3F8DF
:1040A8000346002B01D0012334E0BB68B3F1FF3F86
:1040B80028D0FEF78BFD02467B68D31ABA689A426D
:1040C80002D3BB68002B1DD1FB681B685B6903F03A
:1040D8008003802B16D0FB6800221A63FB6820221D
:1040E80083F83D20FB68002283F83E20FB681B6CA8
:1040F80043F02002FB681A64FB68002283F83C2026
:10410800012307E0FB681B685B6903F08003802BD1
:10411800C3D1002318461037BD4680BD80B584B092
:1041280000AFF860B9607A6034E0F86800F09BF896
:104138000346002B01D0012334E0BB68B3F1FF3FF5
:1041480028D0FEF743FD02467B68D31ABA689A4224
:1041580002D3BB68002B1DD1FB681B685B6903F0A9
:104168000403042B16D0FB6800221A63FB68202284
:1041780083F83D20FB68002283F83E20FB681B6C17
:1041880043F02002FB681A64FB68002283F83C2095
:10419800012307E0FB681B685B6903F00403042B39
:1041A800C3D1002318461037BD4680BD80B584B002
:1041B80000AFF860B9607A6049E0FB681B685B692A
:1041C80003F01003102B19D1FB681B686FF0100265
:1041D8005A61FB6800221A63FB68202283F83D209D
:1041E800FB68002283F83E20FB681A6CFB681A649F
:1041F800FB68002283F83C20012330E0FEF7E6FC50
:1042080002467B68D31ABA689A4202D3BB68002B6D
:104218001DD1FB681B685B6903F04003402B16D077
:10422800FB6800221A63FB68202283F83D20FB68A4
:10423800002283F83E20FB681B6C43F02002FB68D9
:104248001A64FB68002283F83C20012307E0FB681E
:104258001B685B6903F04003402BAED1002318466E
:104268001037BD4680BD80B483B000AF78607B68EE
:104278001B685B6903F48063B3F5806F1BD17B68AF
:104288001B686FF480625A617B6800221A637B683E
:10429800202283F83D207B68002283F83E207B683B
:1042A8001B6C43F004027B681A647B68002283F865
:1042B8003C20012300E0002318460C37BD465DF87A
:1042C800047B704780B586B000AF78607B68002BB0
:1042D80001D1012367E27B681B6803F00103002B0F
:1042E80075D0884B9B6803F00C03042B0CD0854BCE
:1042F8009B6803F00C03082B12D1824B5B6803F414
:104308008003B3F5800F0BD17E4B1B6803F4003399
:10431800002B5BD07B685B68002B57D1012342E2FE
:104328007B685B68B3F5803F06D1764B1B68754A9E
:1043380043F4803313601DE07B685B68B3F5A02FFE
:104348000CD1704B1B686F4A43F4802313606D4B8C
:104358001B686C4A43F4803313600BE0694B1B689D
:10436800684A23F480331360664B1B68654A23F45C
:10437800802313607B685B68002B13D0FEF726FC54
:10438800386108E0FEF722FC02463B69D31A642B29
:1043980001D9032307E25B4B1B6803F40033002BAE
:1043A800F0D014E0FEF712FC386108E0FEF70EFCCE
:1043B80002463B69D31A642B01D90323F3E1514B1D
:1043C8001B6803F40033002BF0D100E000BF7B68CA
:1043D8001B6803F00203002B63D04A4B9B6803F071
:1043E8000C03002B0BD0474B9B6803F00C03082BE6
:1043F8001CD1444B5B6803F48003002B16D1414B5E
:104408001B6803F00203002B05D07B68DB68012BD7
:1044180001D00123C7E13B4B1B6823F0F8027B68FE
:104428001B69DB00374913430B603AE07B68DB68A4
:10443800002B20D0344B01221A60FEF7C7FB3861ED
:1044480008E0FEF7C3FB02463B69D31A022B01D9E9
:104458000323A8E12B4B1B6803F00203002BF0D0C9
:10446800284B1B6823F0F8027B681B69DB00254991
:1044780013430B6015E0244B00221A60FEF7A6FBDD
:10448800386108E0FEF7A2FB02463B69D31A022B0B
:1044980001D9032387E11B4B1B6803F00203002BA0
:1044A800F0D17B681B6803F00803002B36D07B68CB
:1044B8005B69002B16D0154B01221A60FEF786FBAC
:1044C800386108E0FEF782FB02463B69D31A022BEB
:1044D80001D9032367E10B4B5B6F03F00203002B49
:1044E800F0D01BE0094B00221A60FEF76FFB386121
:1044F8000EE0FEF76BFB02463B69D31A022B07D985
:10450800032350E10038024000004742800E474232
:10451800884B5B6F03F00203002BEAD17B681B68B2
:1045280003F00403002B00F097800023FB75814BF8
:104538001B6C03F08053002B0FD10023BB607D4B15
:104548001B6C7C4A43F0805313647A4B1B6C03F05A
:104558008053BB60BB680123FB75774B1B6803F472
:104568008073002B18D1744B1B68734A43F4807313
:104578001360FEF72BFB386108E0FEF727FB0246C5
:104588003B69D31A022B01D903230CE16A4B1B6840
:1045980003F48073002BF0D07B689B68012B06D155
:1045A800644B1B6F634A43F0010313671CE07B688D
:1045B8009B68052B0CD15F4B1B6F5E4A43F00403CD
:1045C80013675C4B1B6F5B4A43F0010313670BE0F7
:1045D800584B1B6F574A23F001031367554B1B6F4A
:1045E800544A23F0040313677B689B68002B15D09B
:1045F800FEF7ECFA38610AE0FEF7E8FA02463B6992
:10460800D31A41F28832934201D90323CBE0494BB4
:104618001B6F03F00203002BEED014E0FEF7D6FA6E
:1046280038610AE0FEF7D2FA02463B69D31A41F232
:104638008832934201D90323B5E03E4B1B6F03F048
:104648000203002BEED1FB7D012B05D1394B1B6CEE
:10465800384A23F0805313647B689B69002B00F071
:10466800A180344B9B6803F00C03082B5CD07B685B
:104678009B69022B41D1314B00221A60FEF7A6FA42
:10468800386108E0FEF7A2FA02463B69D31A022B0A
:1046980001D9032387E0274B1B6803F00073002B25
:1046A800F0D17B68DA697B681B6A1A437B685B6AAE
:1046B8009B011A437B689B6A5B08013B1B041A43F6
:1046C8007B68DB6A1B061B4913434B601B4B0122AB
:1046D8001A60FEF77BFA386108E0FEF777FA0246BF
:1046E8003B69D31A022B01D903235CE0114B1B68E9
:1046F80003F00073002BF0D054E0104B00221A6036
:10470800FEF764FA386108E0FEF760FA02463B6992
:10471800D31A022B01D9032345E0064B1B6803F08B
:104728000073002BF0D13DE07B689B69012B07D11A
:10473800012338E000380240007000406000474222
:104748001B4B5B68FB607B689B69012B28D0FB686F
:1047580003F480027B68DB699A4221D1FB6803F08D
:104768003F027B681B6A9A421AD1FA6847F6C073FF
:1047780013407A68526A9201934211D1FB6803F49C
:1047880040327B689B6A5B08013B1B049A4207D155
:10479800FB6803F070627B68DB6A1B069A4201D0F3
:1047A800012300E0002318461837BD4680BD00BF2E
:1047B8000038024080B584B000AF786039607B680B
:1047C800002B01D10123CCE0684B1B6803F00703E1
:1047D8003A689A420CD9654B3A68D2B21A70634B60
:1047E8001B6803F007033A689A4201D00123B8E036
:1047F8007B681B6803F00203002B20D07B681B68D2
:1048080003F00403002B05D0594B9B68584A43F426
:10481800E05393607B681B6803F00803002B05D006
:10482800534B9B68524A43F460439360504B9B68D8
:1048380023F0F0027B689B684D4913438B607B68CB
:104848001B6803F00103002B44D07B685B68012BD5
:1048580007D1474B1B6803F40033002B19D1012300
:104868007FE07B685B68022B03D07B685B68032B67
:1048780007D13F4B1B6803F00073002B09D10123BC
:104888006FE03B4B1B6803F00203002B01D10123AF
:1048980067E0374B9B6823F003027B685B68344909
:1048A80013438B60FEF792F9F8600AE0FEF78EF981
:1048B8000246FB68D31A41F28832934201D9032396
:1048C8004FE02B4B9B6803F00C027B685B689B00F6
:1048D8009A42EBD1254B1B6803F007033A689A42CA
:1048E8000CD2224B3A68D2B21A70204B1B6803F0E4
:1048F80007033A689A4201D0012332E07B681B68BB
:1049080003F00403002B08D0194B9B6823F4E052F2
:104918007B68DB68164913438B607B681B6803F070
:104928000803002B09D0124B9B6823F460427B6874
:104938001B69DB000E4913438B6000F021F8024627
:104948000B4B9B681B0903F00F030A49CB5C22FA47
:1049580003F3094A1360094B1B681846FEF7F2F87F
:10496800002318461037BD4680BD00BF003C0240FA
:104978000038024080740008300100203401002013
:104988002DE9B04F90B000AF00237B630023FB6399
:1049980000233B630023BB63594B9B6803F00C0364
:1049A800082B0DD0082B00F2A180002B02D0042B7D
:1049B80003D09BE0534BBB639BE0534BBB6398E036
:1049C8004F4B5B6803F03F037B634D4B5B6803F41D
:1049D8008003002B28D04A4B5B689B0900223B626E
:1049E8007A623B6AC3F308000021474B03FB01F2DC
:1049F800002300FB03F31344434AA0FB0212FA62AC
:104A08000A46BA62FA6A1344FB627B6B0022BB61F6
:104A1800FA61D7E90623D7E90A01FCF7BDF802468F
:104A28000B461346FB6353E0354B5B689B0900223A
:104A38003B617A613B69C3F3080A4FF0000B5246A9
:104A48005B464FF000004FF00001590141EAD26186
:104A5800500102460B46B2EB0A0863EB0B094FF014
:104A680000024FF000034FEA891343EA98634FEAC4
:104A78008812B2EB080463EB09054FF000024FF00F
:104A88000003EB0043EA5473E20014461D4614EB9E
:104A98000A033B6045EB0B037B604FF000024FF0CD
:104AA8000003D7E9004529468B02214643EA915382
:104AB80021468A02104619467B6B0022BB60FA60C9
:104AC800D7E90223FCF768F802460B461346FB6356
:104AD8000B4B5B681B0C03F0030301335B003B6368
:104AE800FA6B3B6BB2FBF3F3BB6302E0054BBB63B2
:104AF80000BFBB6B18464037BD46BDE8B08F00BF4E
:104B0800003802400024F40040787D0180B400AFF2
:104B1800034B1B681846BD465DF8047B704700BF11
:104B28003001002080B500AFFFF7F0FF0246054BCB
:104B38009B689B0A03F007030349CB5C22FA03F343
:104B4800184680BD003802409074000880B500AF58
:104B5800FFF7DCFF0246054B9B685B0B03F007037E
:104B68000349CB5C22FA03F3184680BD00380240A3
:104B78009074000880B582B000AF78607B68002B25
:104B880001D1012342E07B6893F84130DBB2002B6E
:104B980006D17B68002283F840207868FDF78CFEF8
:104BA8007B68242283F841207B681B68DA687B686D
:104BB8001B6822F40052DA60786800F0BDFD7B685B
:104BC8001B681A697B681B6822F490421A617B682B
:104BD8001B685A697B681B6822F02A025A617B6845
:104BE8001B68DA687B681B6842F40052DA607B68ED
:104BF80000225A647B68202283F841207B682022A7
:104C080083F842207B6800225A630023184608373D
:104C1800BD4680BD80B58AB002AFF860B9603B6020
:104C28001346FB8000237B61FB6893F84130DBB2BD
:104C3800202B75D1BB68002B02D0FB88002B01D13B
:104C480001236EE0FB6800225A64FB68212283F886
:104C58004120FDF7BBFF7861FB68FA889A84FB68FE
:104C6800FA88DA84FB689B68B3F5805F08D1FB6833
:104C78001B69002B04D10023FB61BB68BB6103E007
:104C8800BB68FB610023BB612EE03B6800937B6936
:104C980000228021F86800F01FFB0346002B05D096
:104CA800FB68202283F8412003233AE0FB69002BAC
:104CB8000BD1BB691B881A46FB681B68C2F3080244
:104CC8005A60BB690233BB6107E0FB691A78FB686D
:104CD8001B685A60FB690133FB61FB68DB8C9BB284
:104CE800013B9AB2FB68DA84FB68DB8C9BB2002B31
:104CF800CBD13B6800937B6900224021F86800F023
:104D0800EBFA0346002B05D0FB68202283F84120EC
:104D1800032306E0FB68202283F84120002300E0FB
:104D2800022318462037BD4680BD80B584B000AF49
:104D3800F860B9601346FB80FB6893F84230DBB239
:104D4800202B12D1BB68002B02D0FB88002B01D18D
:104D580001230BE0FB6800221A63FB881A46B96836
:104D6800F86800F012FB034600E0022318461037EB
:104D7800BD4680BD80B5BAB000AF78607B681B685F
:104D88001B68C7F8E4307B681B68DB68C7F8E0304D
:104D98007B681B685B69C7F8DC300023C7F8D8302C
:104DA8000023C7F8D430D7F8E43003F00F03C7F86E
:104DB800D830D7F8D830002B0FD1D7F8E43003F02B
:104DC8002003002B09D0D7F8E03003F02003002B94
:104DD80003D0786800F0F2FB5BE2D7F8D830002BFC
:104DE80000F0DE80D7F8DC3003F00103002B06D199
:104DF800D7F8E03003F49073002B00F0D180D7F897
:104E0800E43003F00103002B0BD0D7F8E03003F4B3
:104E18008073002B05D07B685B6C43F001027B68D4
:104E28005A64D7F8E43003F00403002B0BD0D7F80A
:104E3800DC3003F00103002B05D07B685B6C43F08A
:104E480002027B685A64D7F8E43003F00203002BAF
:104E58000BD0D7F8DC3003F00103002B05D07B68BA
:104E68005B6C43F004027B685A64D7F8E43003F0C3
:104E78000803002B11D0D7F8E03003F02003002BF3
:104E880005D1D7F8DC3003F00103002B05D07B688F
:104E98005B6C43F008027B685A647B685B6C002B90
:104EA80000F0F281D7F8E43003F02003002B08D09B
:104EB800D7F8E03003F02003002B02D0786800F028
:104EC8007DFB7B681B685B6903F04003402B0CBFCC
:104ED80001230023DBB2C7F8D4307B685B6C03F096
:104EE8000803002B03D1D7F8D430002B4FD07868B3
:104EF80000F085FA7B681B685B6903F04003402B70
:104F080041D17B681B681433C7F89C30D7F89C30B4
:104F180053E8003FC7F89830D7F8983023F040039B
:104F2800C7F8D0307B681B681433D7F8D020C7F88F
:104F3800A820C7F8A430D7F8A410D7F8A82041E8CB
:104F48000023C7F8A030D7F8A030002BD9D17B6850
:104F5800DB6B002B13D07B68DB6B7E4A1A657B68A2
:104F6800DB6B1846FDF7E3FF0346002B16D07B6882
:104F7800DB6B1B6D7A68D26B104698470EE0786839
:104F880000F094F90AE0786800F090F906E0786893
:104F980000F08CF97B6800225A6475E100BF73E168
:104FA8007B681B6B012B40F04F81D7F8E43003F08E
:104FB8001003002B00F04881D7F8E03003F010030D
:104FC800002B00F041810023BB607B681B681B68D5
:104FD800BB607B681B685B68BB60BB687B681B68E1
:104FE8005B6903F04003402B40F0B6807B68DB6BC5
:104FF8001B685B68A7F8BE30B7F8BE30002B00F01E
:1050080045817B689B8DB7F8BE209A4280F03E812F
:105018007B68B7F8BE20DA857B68DB6BDB69B3F5A4
:10502800807F00F088807B681B680C33C7F8883065
:10503800D7F8883053E8003FC7F88430D7F8843071
:1050480023F48073C7F8B8307B681B680C33D7F833
:10505800B820C7F89420C7F89030D7F89010D7F840
:10506800942041E80023C7F88C30D7F88C30002B07
:10507800D9D17B681B6814337B677B6F53E8003F8B
:105088003B673B6F23F00103C7F8B4307B681B68AC
:105098001433D7F8B420C7F88020FB67F96FD7F826
:1050A800802041E80023BB67BB6F002BE1D17B6800
:1050B8001B6814333B663B6E53E8003FFB65FB6D92
:1050C80023F04003C7F8B0307B681B681433D7F867
:1050D800B020FA66BB66B96EFA6E41E800237B66BB
:1050E8007B6E002BE3D17B68202283F842207B680B
:1050F80000221A637B681B680C33FB64FB6C53E863
:10510800003FBB64BB6C23F01003C7F8AC307B686E
:105118001B680C33D7F8AC20BA657B65796DBA6D1E
:1051280041E800233B653B6D002BE3D17B68DB6BDB
:105138001846FDF78CFE7B6802225A637B689A8DBD
:105148007B68DB8D9BB2D31A9BB21946786800F056
:10515800B7F89BE0CD5400087B689A8D7B68DB8D9F
:105168009BB2D31AA7F8CE307B68DB8D9BB2002B9D
:1051780000F08E80B7F8CE30002B00F089807B6875
:105188001B680C33BB63BB6B53E8003F7B637B6BD3
:1051980023F49073C7F8C8307B681B680C33D7F8C2
:1051A800C8207A643B64396C7A6C41E80023FB635D
:1051B800FB6B002BE3D17B681B6814337B627B6A33
:1051C80053E8003F3B623B6A23F00103C7F8C43051
:1051D8007B681B681433D7F8C4203A63FB62F96A0A
:1051E8003A6B41E80023BB62BB6A002BE3D17B68C2
:1051F800202283F842207B6800221A637B681B68A0
:105208000C333B613B6953E8003FFB60FB6823F0CC
:105218001003C7F8C0307B681B680C33D7F8C02070
:10522800FA61BB61B969FA6941E800237B617B696E
:10523800002BE3D17B6802225A63B7F8CE301946B7
:10524800786800F03DF823E0D7F8E43003F08003F5
:10525800002B09D0D7F8E03003F08003002B03D0EF
:10526800786800F043F914E0D7F8E43003F040031D
:10527800002B0ED0D7F8E03003F04003002B08D005
:10528800786800F083F904E000BF02E000BF00E0A6
:1052980000BFE837BD4680BD80B483B000AF7860FA
:1052A80000BF0C37BD465DF8047B704780B483B0FF
:1052B80000AF786000BF0C37BD465DF8047B7047CF
:1052C80080B483B000AF78600B467B8000BF0C379A
:1052D800BD465DF8047B704780B586B000AFF860C6
:1052E800B9603B601346FB713BE03B6AB3F1FF3F9B
:1052F80037D0FDF76BFC02463B68D31A3A6A9A42EC
:1053080002D33B6A002B01D103233AE0FB681B68F8
:10531800DB6803F00403002B23D0BB68802B20D06C
:10532800BB68402B1DD0FB681B681B6803F0080393
:10533800082B16D100237B61FB681B681B687B6107
:10534800FB681B685B687B617B69F86800F057F84D
:10535800FB6808225A64FB68002283F84020012376
:105368000FE0FB681B681A68BB681340BA689A426A
:105378000CBF01230023DBB21A46FB799A42B4D052
:10538800002318461837BD4680BD80B485B000AFED
:10539800F860B9601346FB80FB68BA689A62FB68DC
:1053A800FA889A85FB68FA88DA85FB6800225A64CD
:1053B800FB68222283F84220FB681B69002B07D078
:1053C800FB681B68DA68FB681B6842F48072DA6065
:1053D800FB681B685A69FB681B6842F001025A6146
:1053E800FB681B68DA68FB681B6842F02002DA6019
:1053F800002318461437BD465DF8047B704780B417
:1054080095B000AF78607B681B680C337B637B6B5F
:1054180053E8003F3B633B6B23F49073FB647B686A
:105428001B680C33FA6C3A64FB63F96B3A6C41E81D
:105438000023BB63BB6B002BE5D17B681B6814336F
:105448003B623B6A53E8003FFB61FB6923F00103C1
:10545800BB647B681B681433BA6CFA62BB62B96AB6
:10546800FA6A41E800237B627B6A002BE5D17B68FE
:105478001B6B012B19D17B681B680C33FB60FB6825
:1054880053E8003FBB60BB6823F010037B647B6874
:105498001B680C337A6CBA617B617969BA6941E837
:1054A80000233B613B69002BE5D17B68202283F810
:1054B80042207B6800221A6300BF5437BD465DF85E
:1054C800047B704780B584B000AF78607B689B6BC5
:1054D800FB60FB680022DA85FB680022DA84F86842
:1054E800FFF7E4FE00BF1037BD4680BD80B485B02D
:1054F80000AF78607B6893F84130DBB2212B3ED156
:105508007B689B68B3F5805F14D17B681B69002BAF
:1055180010D17B681B6AFB60FB681B881A467B6896
:105528001B68C2F308025A607B681B6A9A1C7B6876
:105538001A6208E07B681B6A591C7A6811621A783B
:105548007B681B685A607B68DB8C9BB2013B9BB213
:105558007A681946D184002B0FD17B681B68DA68FA
:105568007B681B6822F08002DA607B681B68DA6857
:105578007B681B6842F04002DA60002300E00223E7
:1055880018461437BD465DF8047B704780B582B075
:1055980000AF78607B681B68DA687B681B6822F05C
:1055A8004002DA607B68202283F841207868FFF7A0
:1055B80073FE002318460837BD4680BD80B58CB001
:1055C80000AF78607B6893F84230DBB2222B40F062
:1055D800AE807B689B68B3F5805F17D17B681B69D9
:1055E800002B13D10023FB627B689B6ABB627B683C
:1055F8001B685B689BB2C3F308039AB2BB6A1A8044
:105608007B689B6A9A1C7B689A6226E07B689B6A27
:10561800FB620023BB627B689B68B3F5805F07D0A1
:105628007B689B68002B0AD17B681B69002B06D11D
:105638007B681B685B68DAB2FB6A1A7008E07B68F3
:105648001B685B68DBB203F07F03DAB2FB6A1A708F
:105658007B689B6A5A1C7B689A627B68DB8D9BB26D
:10566800013B9BB27A681946D185002B5DD17B68D6
:105678001B68DA687B681B6822F02002DA607B68A6
:105688001B68DA687B681B6822F48072DA607B68C2
:105698001B685A697B681B6822F001025A617B68A3
:1056A800202283F842207B6800225A637B681B6BA8
:1056B800012B35D17B6800221A637B681B680C3389
:1056C8007B617B6953E8003F3B613B6923F0100332
:1056D8007B627B681B680C337A6A3A62FB61F96902
:1056E8003A6A41E80023BB61BB69002BE5D17B68BE
:1056F8001B681B6803F01003102B0AD10023FB6002
:105708007B681B681B68FB607B681B685B68FB60C9
:10571800FB687B689B8D19467868FFF7D1FD02E02E
:105728007868FBF739FD002302E0002300E002233C
:1057380018463037BD4680BD2DE9B04FC0B000AF28
:10574800C7F8F400D7F8F4301B681B6923F44050FD
:10575800D7F8F430D968D7F8F4301A6840EA01036A
:105768001361D7F8F4309A68D7F8F4301B691A43F4
:10577800D7F8F4305B691A43D7F8F430DB69134380
:10578800C7F8F830D7F8F4301B68DB6823F4164103
:1057980021F00C01D7F8F4301A68D7F8F8300B4329
:1057A800D360D7F8F4301B685B6923F44070D7F8EE
:1057B800F4309969D7F8F4301A6840EA0103536164
:1057C800D7F8F4301A688F4B9A4205D0D7F8F430DE
:1057D8001A688D4B9A4204D1FFF7B8F9C7F8FC0054
:1057E80003E0FFF79FF9C7F8FC00D7F8F430DB694E
:1057F800B3F5004F40F00C81D7F8FC300022C7F811
:10580800E830C7F8EC20D7E93A4522462B469118EC
:10581800B9655B41FB65D7E91623214612EB010800
:10582800294643EB01094FF000024FF000034FEA0D
:10583800C90343EA58734FEAC8029046994623467B
:1058480018EB0303C7F8E0302B4649EB0303C7F80E
:10585800E430D7F8F4305B680022C7F8D830C7F8CE
:10586800DC20D7E936120B46DB183B65134642EBC2
:1058780003037B65D7E91423D7E93801FBF78CF9D3
:1058880002460B46614BA3FB02235B091C01D7F8B8
:10589800FC300022C7F8D030C7F8D420D7E93489C3
:1058A80042464B469118B9645B41FB64D7E9122321
:1058B800414612EB010A494643EB010B4FF0000247
:1058C8004FF000034FEACB0343EA5A734FEACA0288
:1058D80092469B4643461AEB0303C7F8C8304B462B
:1058E8004BEB0303C7F8CC30D7F8F4305B680022E1
:1058F800C7F8C030C7F8C420D7E930120B46DB1808
:105908003B64134642EB03037B64D7E91023D7E9D2
:105918003201FBF741F902460B4611463B4BA3FB0C
:1059280001235B09642202FB03F3CB1ADB0003F1BA
:105938003202364BA3FB02235B095B0003F4F873C6
:105948001C44D7F8FC300022C7F8B830C7F8BC2090
:10595800D7E92E8942464B469118B9635B41FB63F0
:10596800D7E90E2341465118396349464B417B63B9
:105978004FF000024FF00003D7E90CAB5946CB00BB
:10598800514643EA51735146CA0010461946034628
:1059980042469B18C7F8B0304B460A4642EB030311
:1059A800C7F8B430D7F8F4305B680022C7F8A830DD
:1059B800C7F8AC20D7E92A120B46DB18BB6213469E
:1059C80042EB0303FB62D7E90A23D7E92C01FBF773
:1059D800E3F802460B460D4BA3FB02135B09642157
:1059E80001FB03F3D31ADB003233084AA2FB03237B
:1059F8005B0903F00702D7F8F4301B6822449A6069
:105A080006E100BF00100140001401401F85EB5162
:105A1800D7F8FC300022C7F8A030C7F8A420D7E98F
:105A2800288942464B46911839625B417B62D7E927
:105A3800082341465418494643EB01054FF000023C
:105A48004FF00003EB0043EA5473E20014461D468E
:105A58004346E318C7F898304B4645EB0303C7F8AD
:105A68009C30D7F8F4305B680022C7F89030C7F84C
:105A780094204FF000024FF00003D7E9244529464F
:105A88008B00214643EA917321468A00D7E9260113
:105A9800FBF782F802460B46604BA3FB02235B0927
:105AA8001C01D7F8FC300022C7F88830C7F88C20D2
:105AB800D7E9228942464B469118B9615B41FB619F
:105AC800D7E9062341465118396149464B417B6164
